:040890008E088F0936
:10089400E5091509AE0870021508FFEF4E601975D9
:1008A4000A03750BB6E50B150BAE0A7002150AFFA9
:0808B400EF4E60DC80EF80D8FC
:0108BC002219
:10080000C2ED7F017E00120890D2EDD2EBD2EC7FD8
:10081000057E001208907F3F1208BD1208537FBF6B
:100820001208BD7F401208BD750C00E50CC3944052
:1008300050097F801208D8050C80F0750C00E50C7B
:10084000C3944050F67F647E00120890050C80EE41
:0308500080E9221A
:10085300750D00750E00C3E50E9408E50D94005068
:100863002BAF0EEF24B8FF1208BD7F401208BD75F1
:100873000C00E50CC3944050097F001208D8050C06
:0D08830080F0050EE50E7002050D80CA2202
:0208BD008F0F9B
:1008BF00751028850F80C2E8C2E9D2EAAF10151073
:0808CF00EF70F9C2EA1208F310
:0108D70022FE
:0208D8008F117E
:1008DA00751228851180D2E8C2E9D2EAAF12151240
:0808EA00EF70F9C2EA1208F3F5
:0108F20022E3
:1008F3007580FFC2E8D2E9D2EA858013C2EAE51324
:0309030020E7F0FA
:0109060022CE
:03000000020907EB
:0C090700787FE4F6D8FD7581130208002B
:00000001FF
