:100942007508FA750988750AFF750BFA750F7875BF
:100952000E56750D34750C1275135C75128F751168
:100962008275103F05080509050BE50B7002050AA3
:10097200E50F2401F50FE50E3400F50EE50D340008
:10098200F50DE50C3400F50CAF13AE12AD11AC1041
:100992007B0A7AD77923783C11078F138E128D1137
:0409A2008C1080C075
:0109A600222E
:1008000002092DE86480F8E933E83360110460F0F0
:10081000ED33EC337009E8FCE9FDEAFEEBFF22045E
:1008200060DED3EB9FEA9EE99DE8C2E78CF0C2F759
:1008300095F0400CE8CCF8E9CDF9EACEFAEBCFFB25
:100840001208F885D0F05804700320D5B3E804707E
:10085000075002B2D502093792D5EC0460F7E4CC18
:10086000C0E0C398F8603B94186008400DD0E0FBEE
:1008700002090FE4FBFAC9FC8028E830E406E4C969
:10088000FBE4CAFCE830E305E4C9CACBFCE8540742
:100890006010F8C3E913F9EA13FAEB13FBEC13FC4D
:1008A000D8F130F52FC3E49CFCEF9BFFEE9AFEEDF0
:1008B00099FDD0E0FBEF4E4D4C701222DB03020994
:1008C00034EC2CFCEF33FFEE33FEED33FDED30E77F
:1008D000EB02090FEF2BFFEE3AFEED39FDD0E0FB06
:1008E00050130BBB0003020937ED13FDEE13FEEFAF
:0808F00013FFEC13FC02090FD9
:1008F800E9D2E7C933E833F892D5EDD2E7CD33EC46
:0709080033FC5002B2D522BE
:10090F00EC30E7100FBF000C0EBE00080DBD000449
:10091F000BEB6014A2D5EB13FCED92E7FD2274FFF5
:10092F00FCFDFEFF22E480F8A2D574FF13FC7D804E
:03093F00E480EF62
:030000000209A74B
:0C09A700787FE4F6D8FD75811302094248
:00000001FF
