:0A095C000808000000000000000081
:04090E008E108F11A7
:10091200E5111511AE1070021510FFEF4E6019753A
:1009220012037513B6E5131513AE1270021512FFFA
:08093200EF4E60DC80EF80D87D
:01093A00229A
:10093B007593007594FFD2AFD2A87580FF75A00F89
:10094B00D295D296C294C29712000012000080FE7C
:01095B002279
:0300030002088C64
:0D088C00C0E0C0D075D000C000C006C0079D
:100899007514007515EF8515A0A2A182A082A28208
:1008A900A35016AF157801EF08800123D8FDFF8FFB
:1008B9001574042514F51480DD20A005E514F4F55C
:1008C90080051420A105E514F4F580051420A2057E
:1008D900E514F4F580051420A305E514F4F5807FEB
:1008E900017E0012090EA2A182A082A282A350F663
:0A08F9007F017E0012090E75A00FAA
:0B090300D007D006D000D0D0D0E032EA
:03000000020800F3
:0C080000787FE4F6D8FD758115020847EA
:10080C0002093BE493A3F8E493A34003F68001F2BE
:10081C0008DFF48029E493A3F85407240CC8C333ED
:10082C00C4540F4420C8834004F456800146F6DFBC
:10083C00E4800B010204081020408090095CE47EE7
:10084C00019360BCA3FF543F30E509541FFEE493B1
:10085C00A360010ECF54C025E060A840B8E493A378
:10086C00FAE493A3F8E493A3C8C582C8CAC583CAA3
:10087C00F0A3C8C582C8CAC583CADFE9DEE780BE5B
:010966000090
:00000001FF
